{
  "contractName": "Maths",
  "abi": [
    {
      "inputs": [
        {
          "internalType": "uint256",
          "name": "a",
          "type": "uint256"
        },
        {
          "internalType": "uint256",
          "name": "b",
          "type": "uint256"
        }
      ],
      "name": "add",
      "outputs": [
        {
          "internalType": "uint256",
          "name": "",
          "type": "uint256"
        }
      ],
      "stateMutability": "pure",
      "type": "function"
    },
    {
      "inputs": [
        {
          "internalType": "uint256",
          "name": "x",
          "type": "uint256"
        },
        {
          "internalType": "uint256",
          "name": "y",
          "type": "uint256"
        }
      ],
      "name": "sub",
      "outputs": [
        {
          "internalType": "uint256",
          "name": "",
          "type": "uint256"
        }
      ],
      "stateMutability": "pure",
      "type": "function"
    }
  ],
  "bytecode": "0x608060405234801561000f575f80fd5b506102288061001d5f395ff3fe608060405234801561000f575f80fd5b5060043610610034575f3560e01c8063771602f714610038578063b67d77c514610068575b5f80fd5b610052600480360381019061004d91906100f9565b610098565b60405161005f9190610146565b60405180910390f35b610082600480360381019061007d91906100f9565b6100ad565b60405161008f9190610146565b60405180910390f35b5f81836100a5919061018c565b905092915050565b5f81836100ba91906101bf565b905092915050565b5f80fd5b5f819050919050565b6100d8816100c6565b81146100e2575f80fd5b50565b5f813590506100f3816100cf565b92915050565b5f806040838503121561010f5761010e6100c2565b5b5f61011c858286016100e5565b925050602061012d858286016100e5565b9150509250929050565b610140816100c6565b82525050565b5f6020820190506101595f830184610137565b92915050565b7f4e487b71000000000000000000000000000000000000000000000000000000005f52601160045260245ffd5b5f610196826100c6565b91506101a1836100c6565b92508282019050808211156101b9576101b861015f565b5b92915050565b5f6101c9826100c6565b91506101d4836100c6565b92508282039050818111156101ec576101eb61015f565b5b9291505056fea26469706673582212200dbf33ed19638d83c3492f6585f9b6854c26b72df8ed43ad6b19c6b85456865064736f6c63430008140033",
  "immutableReferences": {},
  "source": "// SPDX-License-Identifier: MIT\r\n\r\npragma solidity ^0.8.19;\r\n\r\ncontract Maths{\r\n    function add(uint a, uint b) public pure returns(uint){\r\n        return a+b;\r\n    }\r\n\r\n    function sub(uint x, uint y) public pure returns(uint){\r\n        return x-y;\r\n    }\r\n}",
  "sourcePath": "C:\\Users\\LENOVO\\Desktop\\prawin\\trufflePractice\\contracts\\Maths.sol",
  "compiler": {
    "name": "solc",
    "version": "0.8.20+commit.a1b79de6.Emscripten.clang"
  },
  "schemaVersion": "3.4.13",
  "updatedAt": "2023-06-23T08:46:41.532Z",
  "devdoc": {
    "kind": "dev",
    "methods": {},
    "version": 1
  },
  "userdoc": {
    "kind": "user",
    "methods": {},
    "version": 1
  }
}